{
  "_format": "hh-sol-artifact-1",
  "contractName": "ASLExperienceToken",
  "sourceName": "contracts/ASLExperienceToken.sol",
  "abi": [
    {
      "inputs": [],
      "stateMutability": "nonpayable",
      "type": "constructor"
    },
    {
      "anonymous": false,
      "inputs": [
        {
          "indexed": true,
          "internalType": "address",
          "name": "owner",
          "type": "address"
        },
        {
          "indexed": true,
          "internalType": "address",
          "name": "spender",
          "type": "address"
        },
        {
          "indexed": false,
          "internalType": "uint256",
          "name": "value",
          "type": "uint256"
        }
      ],
      "name": "Approval",
      "type": "event"
    },
    {
      "anonymous": false,
      "inputs": [
        {
          "indexed": true,
          "internalType": "address",
          "name": "user",
          "type": "address"
        },
        {
          "indexed": false,
          "internalType": "uint256",
          "name": "amount",
          "type": "uint256"
        },
        {
          "indexed": false,
          "internalType": "enum ASLExperienceToken.ActivityType",
          "name": "activityType",
          "type": "uint8"
        }
      ],
      "name": "ExperienceEarned",
      "type": "event"
    },
    {
      "anonymous": false,
      "inputs": [
        {
          "indexed": false,
          "internalType": "enum ASLExperienceToken.ActivityType",
          "name": "activityType",
          "type": "uint8"
        },
        {
          "indexed": false,
          "internalType": "uint256",
          "name": "newRate",
          "type": "uint256"
        }
      ],
      "name": "RewardRateUpdated",
      "type": "event"
    },
    {
      "anonymous": false,
      "inputs": [
        {
          "indexed": true,
          "internalType": "bytes32",
          "name": "role",
          "type": "bytes32"
        },
        {
          "indexed": true,
          "internalType": "bytes32",
          "name": "previousAdminRole",
          "type": "bytes32"
        },
        {
          "indexed": true,
          "internalType": "bytes32",
          "name": "newAdminRole",
          "type": "bytes32"
        }
      ],
      "name": "RoleAdminChanged",
      "type": "event"
    },
    {
      "anonymous": false,
      "inputs": [
        {
          "indexed": true,
          "internalType": "bytes32",
          "name": "role",
          "type": "bytes32"
        },
        {
          "indexed": true,
          "internalType": "address",
          "name": "account",
          "type": "address"
        },
        {
          "indexed": true,
          "internalType": "address",
          "name": "sender",
          "type": "address"
        }
      ],
      "name": "RoleGranted",
      "type": "event"
    },
    {
      "anonymous": false,
      "inputs": [
        {
          "indexed": true,
          "internalType": "bytes32",
          "name": "role",
          "type": "bytes32"
        },
        {
          "indexed": true,
          "internalType": "address",
          "name": "account",
          "type": "address"
        },
        {
          "indexed": true,
          "internalType": "address",
          "name": "sender",
          "type": "address"
        }
      ],
      "name": "RoleRevoked",
      "type": "event"
    },
    {
      "anonymous": false,
      "inputs": [
        {
          "indexed": true,
          "internalType": "address",
          "name": "from",
          "type": "address"
        },
        {
          "indexed": true,
          "internalType": "address",
          "name": "to",
          "type": "address"
        },
        {
          "indexed": false,
          "internalType": "uint256",
          "name": "value",
          "type": "uint256"
        }
      ],
      "name": "Transfer",
      "type": "event"
    },
    {
      "inputs": [],
      "name": "ADMIN_ROLE",
      "outputs": [
        {
          "internalType": "bytes32",
          "name": "",
          "type": "bytes32"
        }
      ],
      "stateMutability": "view",
      "type": "function"
    },
    {
      "inputs": [],
      "name": "DEFAULT_ADMIN_ROLE",
      "outputs": [
        {
          "internalType": "bytes32",
          "name": "",
          "type": "bytes32"
        }
      ],
      "stateMutability": "view",
      "type": "function"
    },
    {
      "inputs": [],
      "name": "MINTER_ROLE",
      "outputs": [
        {
          "internalType": "bytes32",
          "name": "",
          "type": "bytes32"
        }
      ],
      "stateMutability": "view",
      "type": "function"
    },
    {
      "inputs": [
        {
          "internalType": "enum ASLExperienceToken.ActivityType",
          "name": "",
          "type": "uint8"
        }
      ],
      "name": "activityRewards",
      "outputs": [
        {
          "internalType": "uint256",
          "name": "",
          "type": "uint256"
        }
      ],
      "stateMutability": "view",
      "type": "function"
    },
    {
      "inputs": [
        {
          "internalType": "address",
          "name": "owner",
          "type": "address"
        },
        {
          "internalType": "address",
          "name": "spender",
          "type": "address"
        }
      ],
      "name": "allowance",
      "outputs": [
        {
          "internalType": "uint256",
          "name": "",
          "type": "uint256"
        }
      ],
      "stateMutability": "view",
      "type": "function"
    },
    {
      "inputs": [
        {
          "internalType": "address",
          "name": "spender",
          "type": "address"
        },
        {
          "internalType": "uint256",
          "name": "amount",
          "type": "uint256"
        }
      ],
      "name": "approve",
      "outputs": [
        {
          "internalType": "bool",
          "name": "",
          "type": "bool"
        }
      ],
      "stateMutability": "nonpayable",
      "type": "function"
    },
    {
      "inputs": [
        {
          "internalType": "address",
          "name": "to",
          "type": "address"
        },
        {
          "internalType": "uint256",
          "name": "amount",
          "type": "uint256"
        },
        {
          "internalType": "enum ASLExperienceToken.ActivityType",
          "name": "activityType",
          "type": "uint8"
        }
      ],
      "name": "awardCustomXP",
      "outputs": [],
      "stateMutability": "nonpayable",
      "type": "function"
    },
    {
      "inputs": [
        {
          "internalType": "address",
          "name": "to",
          "type": "address"
        },
        {
          "internalType": "enum ASLExperienceToken.ActivityType",
          "name": "activityType",
          "type": "uint8"
        }
      ],
      "name": "awardXP",
      "outputs": [],
      "stateMutability": "nonpayable",
      "type": "function"
    },
    {
      "inputs": [
        {
          "internalType": "address",
          "name": "account",
          "type": "address"
        }
      ],
      "name": "balanceOf",
      "outputs": [
        {
          "internalType": "uint256",
          "name": "",
          "type": "uint256"
        }
      ],
      "stateMutability": "view",
      "type": "function"
    },
    {
      "inputs": [
        {
          "internalType": "uint256",
          "name": "amount",
          "type": "uint256"
        }
      ],
      "name": "burn",
      "outputs": [],
      "stateMutability": "nonpayable",
      "type": "function"
    },
    {
      "inputs": [
        {
          "internalType": "address",
          "name": "from",
          "type": "address"
        },
        {
          "internalType": "uint256",
          "name": "amount",
          "type": "uint256"
        }
      ],
      "name": "burnFrom",
      "outputs": [],
      "stateMutability": "nonpayable",
      "type": "function"
    },
    {
      "inputs": [],
      "name": "decimals",
      "outputs": [
        {
          "internalType": "uint8",
          "name": "",
          "type": "uint8"
        }
      ],
      "stateMutability": "view",
      "type": "function"
    },
    {
      "inputs": [
        {
          "internalType": "address",
          "name": "spender",
          "type": "address"
        },
        {
          "internalType": "uint256",
          "name": "subtractedValue",
          "type": "uint256"
        }
      ],
      "name": "decreaseAllowance",
      "outputs": [
        {
          "internalType": "bool",
          "name": "",
          "type": "bool"
        }
      ],
      "stateMutability": "nonpayable",
      "type": "function"
    },
    {
      "inputs": [
        {
          "internalType": "bytes32",
          "name": "role",
          "type": "bytes32"
        }
      ],
      "name": "getRoleAdmin",
      "outputs": [
        {
          "internalType": "bytes32",
          "name": "",
          "type": "bytes32"
        }
      ],
      "stateMutability": "view",
      "type": "function"
    },
    {
      "inputs": [
        {
          "internalType": "bytes32",
          "name": "role",
          "type": "bytes32"
        },
        {
          "internalType": "address",
          "name": "account",
          "type": "address"
        }
      ],
      "name": "grantRole",
      "outputs": [],
      "stateMutability": "nonpayable",
      "type": "function"
    },
    {
      "inputs": [
        {
          "internalType": "bytes32",
          "name": "role",
          "type": "bytes32"
        },
        {
          "internalType": "address",
          "name": "account",
          "type": "address"
        }
      ],
      "name": "hasRole",
      "outputs": [
        {
          "internalType": "bool",
          "name": "",
          "type": "bool"
        }
      ],
      "stateMutability": "view",
      "type": "function"
    },
    {
      "inputs": [
        {
          "internalType": "address",
          "name": "spender",
          "type": "address"
        },
        {
          "internalType": "uint256",
          "name": "addedValue",
          "type": "uint256"
        }
      ],
      "name": "increaseAllowance",
      "outputs": [
        {
          "internalType": "bool",
          "name": "",
          "type": "bool"
        }
      ],
      "stateMutability": "nonpayable",
      "type": "function"
    },
    {
      "inputs": [],
      "name": "name",
      "outputs": [
        {
          "internalType": "string",
          "name": "",
          "type": "string"
        }
      ],
      "stateMutability": "view",
      "type": "function"
    },
    {
      "inputs": [
        {
          "internalType": "bytes32",
          "name": "role",
          "type": "bytes32"
        },
        {
          "internalType": "address",
          "name": "account",
          "type": "address"
        }
      ],
      "name": "renounceRole",
      "outputs": [],
      "stateMutability": "nonpayable",
      "type": "function"
    },
    {
      "inputs": [
        {
          "internalType": "bytes32",
          "name": "role",
          "type": "bytes32"
        },
        {
          "internalType": "address",
          "name": "account",
          "type": "address"
        }
      ],
      "name": "revokeRole",
      "outputs": [],
      "stateMutability": "nonpayable",
      "type": "function"
    },
    {
      "inputs": [
        {
          "internalType": "bytes4",
          "name": "interfaceId",
          "type": "bytes4"
        }
      ],
      "name": "supportsInterface",
      "outputs": [
        {
          "internalType": "bool",
          "name": "",
          "type": "bool"
        }
      ],
      "stateMutability": "view",
      "type": "function"
    },
    {
      "inputs": [],
      "name": "symbol",
      "outputs": [
        {
          "internalType": "string",
          "name": "",
          "type": "string"
        }
      ],
      "stateMutability": "view",
      "type": "function"
    },
    {
      "inputs": [],
      "name": "totalSupply",
      "outputs": [
        {
          "internalType": "uint256",
          "name": "",
          "type": "uint256"
        }
      ],
      "stateMutability": "view",
      "type": "function"
    },
    {
      "inputs": [
        {
          "internalType": "address",
          "name": "to",
          "type": "address"
        },
        {
          "internalType": "uint256",
          "name": "amount",
          "type": "uint256"
        }
      ],
      "name": "transfer",
      "outputs": [
        {
          "internalType": "bool",
          "name": "",
          "type": "bool"
        }
      ],
      "stateMutability": "nonpayable",
      "type": "function"
    },
    {
      "inputs": [
        {
          "internalType": "address",
          "name": "from",
          "type": "address"
        },
        {
          "internalType": "address",
          "name": "to",
          "type": "address"
        },
        {
          "internalType": "uint256",
          "name": "amount",
          "type": "uint256"
        }
      ],
      "name": "transferFrom",
      "outputs": [
        {
          "internalType": "bool",
          "name": "",
          "type": "bool"
        }
      ],
      "stateMutability": "nonpayable",
      "type": "function"
    },
    {
      "inputs": [
        {
          "internalType": "enum ASLExperienceToken.ActivityType",
          "name": "activityType",
          "type": "uint8"
        },
        {
          "internalType": "uint256",
          "name": "newRate",
          "type": "uint256"
        }
      ],
      "name": "updateRewardRate",
      "outputs": [],
      "stateMutability": "nonpayable",
      "type": "function"
    }
  ],
  "bytecode": "0x60806040523480156200001157600080fd5b506040518060400160405280601581526020017f41534c20457870657269656e636520506f696e7473000000000000000000000081525060405180604001604052806005815260200164041534c58560dc1b8152508160039081620000779190620003b5565b506004620000868282620003b5565b50620000989150600090503362000258565b620000c47fa49807205ce4d355092ef5a8a18f56e8913cf4a201fbe287825b095693c217753362000258565b620000f07f9f2df0fed2c77648de5860a4cc508cd0818c85b8b8a1ab4ceeef8d981c8956a63362000258565b620000fe6012600a62000594565b6200010b906032620005ac565b6000805260066020527f54cdd369e4e8a8515e52ca72ec816c2101831ad1f18bf44102ed171459c9b4f855620001446012600a62000594565b62000151906064620005ac565b600160005260066020527f3e5fec24aa4dc4e5aee2e025e51e1392c72a2500577559fae9665c6d52bd6a31556200018b6012600a62000594565b62000198906014620005ac565b600260005260066020527f8819ef417987f8ae7a81f42cdfb18815282fe989326fbff903d13cf0e03ace2955620001d26012600a62000594565b620001df90601e620005ac565b600360005260066020527f75f96ab15d697e93042dc45b5c896c4b27e89bb6eaf39475c5c371cb2513f7d255620002196012600a62000594565b620002269060c8620005ac565b600460005260066020527fc5069e24aaadb2addc3e52e868fcf3f4f8acf5a87e24300992fd4540c2a87eed55620005c6565b620002648282620002e3565b620002df5760008281526005602090815260408083206001600160a01b03851684529091529020805460ff191660011790556200029e3390565b6001600160a01b0316816001600160a01b0316837f2f8788117e7eff1d82e926ec794901d17c78024a50270940304540a733656f0d60405160405180910390a45b5050565b60008281526005602090815260408083206001600160a01b038516845290915290205460ff165b92915050565b634e487b7160e01b600052604160045260246000fd5b600181811c908216806200033b57607f821691505b6020821081036200035c57634e487b7160e01b600052602260045260246000fd5b50919050565b601f821115620003b057600081815260208120601f850160051c810160208610156200038b5750805b601f850160051c820191505b81811015620003ac5782815560010162000397565b5050505b505050565b81516001600160401b03811115620003d157620003d162000310565b620003e981620003e2845462000326565b8462000362565b602080601f831160018114620004215760008415620004085750858301515b600019600386901b1c1916600185901b178555620003ac565b600085815260208120601f198616915b82811015620004525788860151825594840194600190910190840162000431565b5085821015620004715787850151600019600388901b60f8161c191681555b5050505050600190811b01905550565b634e487b7160e01b600052601160045260246000fd5b600181815b80851115620004d8578160001904821115620004bc57620004bc62000481565b80851615620004ca57918102915b93841c93908002906200049c565b509250929050565b600082620004f1575060016200030a565b8162000500575060006200030a565b8160018114620005195760028114620005245762000544565b60019150506200030a565b60ff84111562000538576200053862000481565b50506001821b6200030a565b5060208310610133831016604e8410600b841016171562000569575081810a6200030a565b62000575838362000497565b80600019048211156200058c576200058c62000481565b029392505050565b6000620005a560ff841683620004e0565b9392505050565b80820281158282048414176200030a576200030a62000481565b61150c80620005d66000396000f3fe608060405234801561001057600080fd5b506004361061018e5760003560e01c806375b238fc116100de578063a217fddf11610097578063d539139311610071578063d53913931461037a578063d547741f1461038f578063dd62ed3e146103a2578063e0b1fb06146103b557600080fd5b8063a217fddf1461034c578063a457c2d714610354578063a9059cbb1461036757600080fd5b806375b238fc146102d157806379cc6790146102f8578063853ea0011461030b57806390cc74921461031e57806391d148541461033157806395d89b411461034457600080fd5b80632f2ff15d1161014b578063366d66fb11610125578063366d66fb14610262578063395093511461028257806342966c681461029557806370a08231146102a857600080fd5b80632f2ff15d1461022b578063313ce5671461024057806336568abe1461024f57600080fd5b806301ffc9a71461019357806306fdde03146101bb578063095ea7b3146101d057806318160ddd146101e357806323b872dd146101f5578063248a9ca314610208575b600080fd5b6101a66101a13660046110e4565b6103c8565b60405190151581526020015b60405180910390f35b6101c36103d9565b6040516101b29190611132565b6101a66101de366004611181565b61046b565b6002545b6040519081526020016101b2565b6101a66102033660046111ab565b610483565b6101e76102163660046111e7565b60009081526005602052604090206001015490565b61023e610239366004611200565b6104a9565b005b604051601281526020016101b2565b61023e61025d366004611200565b6104d3565b6101e761027036600461123b565b60066020526000908152604090205481565b6101a6610290366004611181565b610556565b61023e6102a33660046111e7565b610578565b6101e76102b6366004611256565b6001600160a01b031660009081526020819052604090205490565b6101e77fa49807205ce4d355092ef5a8a18f56e8913cf4a201fbe287825b095693c2177581565b61023e610306366004611181565b610585565b61023e610319366004611271565b6105a7565b61023e61032c3660046112ad565b610612565b6101a661033f366004611200565b6106a9565b6101c36106d4565b6101e7600081565b6101a6610362366004611181565b6106e3565b6101a6610375366004611181565b610769565b6101e76000805160206114b783398151915281565b61023e61039d366004611200565b610777565b6101e76103b03660046112d7565b61079c565b61023e6103c3366004611301565b6107c7565b60006103d382610869565b92915050565b6060600380546103e89061131d565b80601f01602080910402602001604051908101604052809291908181526020018280546104149061131d565b80156104615780601f1061043657610100808354040283529160200191610461565b820191906000526020600020905b81548152906001019060200180831161044457829003601f168201915b5050505050905090565b60003361047981858561089e565b5060019392505050565b6000336104918582856109c2565b61049c858585610a3c565b60019150505b9392505050565b6000828152600560205260409020600101546104c481610be0565b6104ce8383610bea565b505050565b6001600160a01b03811633146105485760405162461bcd60e51b815260206004820152602f60248201527f416363657373436f6e74726f6c3a2063616e206f6e6c792072656e6f756e636560448201526e103937b632b9903337b91039b2b63360891b60648201526084015b60405180910390fd5b6105528282610c70565b5050565b600033610479818585610569838361079c565b610573919061136d565b61089e565b6105823382610cd7565b50565b6000805160206114b783398151915261059d81610be0565b6104ce8383610e09565b6000805160206114b78339815191526105bf81610be0565b6105c98484610e1e565b836001600160a01b03167f37881af4a6abbf4edeaa546b448025f7368f7cf0bb6f761f91a0ea403336d4b284846040516106049291906113b8565b60405180910390a250505050565b6000805160206114b783398151915261062a81610be0565b60006006600084600481111561064257610642611380565b600481111561065357610653611380565b815260200190815260200160002054905061066e8482610e1e565b836001600160a01b03167f37881af4a6abbf4edeaa546b448025f7368f7cf0bb6f761f91a0ea403336d4b282856040516106049291906113b8565b60009182526005602090815260408084206001600160a01b0393909316845291905290205460ff1690565b6060600480546103e89061131d565b600033816106f1828661079c565b9050838110156107515760405162461bcd60e51b815260206004820152602560248201527f45524332303a2064656372656173656420616c6c6f77616e63652062656c6f77604482015264207a65726f60d81b606482015260840161053f565b61075e828686840361089e565b506001949350505050565b600033610479818585610a3c565b60008281526005602052604090206001015461079281610be0565b6104ce8383610c70565b6001600160a01b03918216600090815260016020908152604080832093909416825291909152205490565b7fa49807205ce4d355092ef5a8a18f56e8913cf4a201fbe287825b095693c217756107f181610be0565b816006600085600481111561080857610808611380565b600481111561081957610819611380565b8152602001908152602001600020819055507fe3f408bbee4c8943793f63832208ab606680bfd72bfc8c49af7151dd656ff4ca838360405161085c9291906113cc565b60405180910390a1505050565b60006001600160e01b03198216637965db0b60e01b14806103d357506301ffc9a760e01b6001600160e01b03198316146103d3565b6001600160a01b0383166109005760405162461bcd60e51b8152602060048201526024808201527f45524332303a20617070726f76652066726f6d20746865207a65726f206164646044820152637265737360e01b606482015260840161053f565b6001600160a01b0382166109615760405162461bcd60e51b815260206004820152602260248201527f45524332303a20617070726f766520746f20746865207a65726f206164647265604482015261737360f01b606482015260840161053f565b6001600160a01b0383811660008181526001602090815260408083209487168084529482529182902085905590518481527f8c5be1e5ebec7d5bd14f71427d1e84f3dd0314c0f7b2291e5b200ac8c7c3b925910160405180910390a3505050565b60006109ce848461079c565b90506000198114610a365781811015610a295760405162461bcd60e51b815260206004820152601d60248201527f45524332303a20696e73756666696369656e7420616c6c6f77616e6365000000604482015260640161053f565b610a36848484840361089e565b50505050565b6001600160a01b038316610aa05760405162461bcd60e51b815260206004820152602560248201527f45524332303a207472616e736665722066726f6d20746865207a65726f206164604482015264647265737360d81b606482015260840161053f565b6001600160a01b038216610b025760405162461bcd60e51b815260206004820152602360248201527f45524332303a207472616e7366657220746f20746865207a65726f206164647260448201526265737360e81b606482015260840161053f565b6001600160a01b03831660009081526020819052604090205481811015610b7a5760405162461bcd60e51b815260206004820152602660248201527f45524332303a207472616e7366657220616d6f756e7420657863656564732062604482015265616c616e636560d01b606482015260840161053f565b6001600160a01b03848116600081815260208181526040808320878703905593871680835291849020805487019055925185815290927fddf252ad1be2c89b69c2b068fc378daa952ba7f163c4a11628f55a4df523b3ef910160405180910390a3610a36565b6105828133610edd565b610bf482826106a9565b6105525760008281526005602090815260408083206001600160a01b03851684529091529020805460ff19166001179055610c2c3390565b6001600160a01b0316816001600160a01b0316837f2f8788117e7eff1d82e926ec794901d17c78024a50270940304540a733656f0d60405160405180910390a45050565b610c7a82826106a9565b156105525760008281526005602090815260408083206001600160a01b0385168085529252808320805460ff1916905551339285917ff6391f5c32d9c69d2a47ea670b442974b53935d1edc7fd64eb21e047a839171b9190a45050565b6001600160a01b038216610d375760405162461bcd60e51b815260206004820152602160248201527f45524332303a206275726e2066726f6d20746865207a65726f206164647265736044820152607360f81b606482015260840161053f565b6001600160a01b03821660009081526020819052604090205481811015610dab5760405162461bcd60e51b815260206004820152602260248201527f45524332303a206275726e20616d6f756e7420657863656564732062616c616e604482015261636560f01b606482015260840161053f565b6001600160a01b0383166000818152602081815260408083208686039055600280548790039055518581529192917fddf252ad1be2c89b69c2b068fc378daa952ba7f163c4a11628f55a4df523b3ef910160405180910390a3505050565b610e148233836109c2565b6105528282610cd7565b6001600160a01b038216610e745760405162461bcd60e51b815260206004820152601f60248201527f45524332303a206d696e7420746f20746865207a65726f206164647265737300604482015260640161053f565b8060026000828254610e86919061136d565b90915550506001600160a01b038216600081815260208181526040808320805486019055518481527fddf252ad1be2c89b69c2b068fc378daa952ba7f163c4a11628f55a4df523b3ef910160405180910390a35050565b610ee782826106a9565b61055257610ef481610f36565b610eff836020610f48565b604051602001610f109291906113e7565b60408051601f198184030181529082905262461bcd60e51b825261053f91600401611132565b60606103d36001600160a01b03831660145b60606000610f5783600261145c565b610f6290600261136d565b67ffffffffffffffff811115610f7a57610f7a611473565b6040519080825280601f01601f191660200182016040528015610fa4576020820181803683370190505b509050600360fc1b81600081518110610fbf57610fbf611489565b60200101906001600160f81b031916908160001a905350600f60fb1b81600181518110610fee57610fee611489565b60200101906001600160f81b031916908160001a905350600061101284600261145c565b61101d90600161136d565b90505b6001811115611095576f181899199a1a9b1b9c1cb0b131b232b360811b85600f166010811061105157611051611489565b1a60f81b82828151811061106757611067611489565b60200101906001600160f81b031916908160001a90535060049490941c9361108e8161149f565b9050611020565b5083156104a25760405162461bcd60e51b815260206004820181905260248201527f537472696e67733a20686578206c656e67746820696e73756666696369656e74604482015260640161053f565b6000602082840312156110f657600080fd5b81356001600160e01b0319811681146104a257600080fd5b60005b83811015611129578181015183820152602001611111565b50506000910152565b602081526000825180602084015261115181604085016020870161110e565b601f01601f19169190910160400192915050565b80356001600160a01b038116811461117c57600080fd5b919050565b6000806040838503121561119457600080fd5b61119d83611165565b946020939093013593505050565b6000806000606084860312156111c057600080fd5b6111c984611165565b92506111d760208501611165565b9150604084013590509250925092565b6000602082840312156111f957600080fd5b5035919050565b6000806040838503121561121357600080fd5b8235915061122360208401611165565b90509250929050565b80356005811061117c57600080fd5b60006020828403121561124d57600080fd5b6104a28261122c565b60006020828403121561126857600080fd5b6104a282611165565b60008060006060848603121561128657600080fd5b61128f84611165565b9250602084013591506112a46040850161122c565b90509250925092565b600080604083850312156112c057600080fd5b6112c983611165565b91506112236020840161122c565b600080604083850312156112ea57600080fd5b6112f383611165565b915061122360208401611165565b6000806040838503121561131457600080fd5b61119d8361122c565b600181811c9082168061133157607f821691505b60208210810361135157634e487b7160e01b600052602260045260246000fd5b50919050565b634e487b7160e01b600052601160045260246000fd5b808201808211156103d3576103d3611357565b634e487b7160e01b600052602160045260246000fd5b600581106113b457634e487b7160e01b600052602160045260246000fd5b9052565b828152604081016104a26020830184611396565b604081016113da8285611396565b8260208301529392505050565b7f416363657373436f6e74726f6c3a206163636f756e742000000000000000000081526000835161141f81601785016020880161110e565b7001034b99036b4b9b9b4b733903937b6329607d1b601791840191820152835161145081602884016020880161110e565b01602801949350505050565b80820281158282048414176103d3576103d3611357565b634e487b7160e01b600052604160045260246000fd5b634e487b7160e01b600052603260045260246000fd5b6000816114ae576114ae611357565b50600019019056fe9f2df0fed2c77648de5860a4cc508cd0818c85b8b8a1ab4ceeef8d981c8956a6a26469706673582212203785398c783448d01e1b77e0d00105a4b7f08a7d7ef9c937ebfb41d2b7b52d5964736f6c63430008130033",
  "linkReferences": {},
  "deployedLinkReferences": {}
}